{
  "_format": "hh-sol-artifact-1",
  "contractName": "UniversalPoints",
  "sourceName": "contracts/UniversalPoints.sol",
  "abi": [
    {
      "inputs": [
        {
          "internalType": "uint256",
          "name": "initialSupply",
          "type": "uint256"
        }
      ],
      "stateMutability": "nonpayable",
      "type": "constructor"
    },
    {
      "inputs": [
        {
          "internalType": "address",
          "name": "spender",
          "type": "address"
        },
        {
          "internalType": "uint256",
          "name": "allowance",
          "type": "uint256"
        },
        {
          "internalType": "uint256",
          "name": "needed",
          "type": "uint256"
        }
      ],
      "name": "ERC20InsufficientAllowance",
      "type": "error"
    },
    {
      "inputs": [
        {
          "internalType": "address",
          "name": "sender",
          "type": "address"
        },
        {
          "internalType": "uint256",
          "name": "balance",
          "type": "uint256"
        },
        {
          "internalType": "uint256",
          "name": "needed",
          "type": "uint256"
        }
      ],
      "name": "ERC20InsufficientBalance",
      "type": "error"
    },
    {
      "inputs": [
        {
          "internalType": "address",
          "name": "approver",
          "type": "address"
        }
      ],
      "name": "ERC20InvalidApprover",
      "type": "error"
    },
    {
      "inputs": [
        {
          "internalType": "address",
          "name": "receiver",
          "type": "address"
        }
      ],
      "name": "ERC20InvalidReceiver",
      "type": "error"
    },
    {
      "inputs": [
        {
          "internalType": "address",
          "name": "sender",
          "type": "address"
        }
      ],
      "name": "ERC20InvalidSender",
      "type": "error"
    },
    {
      "inputs": [
        {
          "internalType": "address",
          "name": "spender",
          "type": "address"
        }
      ],
      "name": "ERC20InvalidSpender",
      "type": "error"
    },
    {
      "inputs": [
        {
          "internalType": "address",
          "name": "owner",
          "type": "address"
        }
      ],
      "name": "OwnableInvalidOwner",
      "type": "error"
    },
    {
      "inputs": [
        {
          "internalType": "address",
          "name": "account",
          "type": "address"
        }
      ],
      "name": "OwnableUnauthorizedAccount",
      "type": "error"
    },
    {
      "anonymous": false,
      "inputs": [
        {
          "indexed": true,
          "internalType": "address",
          "name": "owner",
          "type": "address"
        },
        {
          "indexed": true,
          "internalType": "address",
          "name": "spender",
          "type": "address"
        },
        {
          "indexed": false,
          "internalType": "uint256",
          "name": "value",
          "type": "uint256"
        }
      ],
      "name": "Approval",
      "type": "event"
    },
    {
      "anonymous": false,
      "inputs": [
        {
          "indexed": true,
          "internalType": "address",
          "name": "previousOwner",
          "type": "address"
        },
        {
          "indexed": true,
          "internalType": "address",
          "name": "newOwner",
          "type": "address"
        }
      ],
      "name": "OwnershipTransferred",
      "type": "event"
    },
    {
      "anonymous": false,
      "inputs": [
        {
          "indexed": true,
          "internalType": "address",
          "name": "from",
          "type": "address"
        },
        {
          "indexed": true,
          "internalType": "address",
          "name": "to",
          "type": "address"
        },
        {
          "indexed": false,
          "internalType": "uint256",
          "name": "value",
          "type": "uint256"
        }
      ],
      "name": "Transfer",
      "type": "event"
    },
    {
      "inputs": [
        {
          "internalType": "address",
          "name": "minter",
          "type": "address"
        }
      ],
      "name": "addMinter",
      "outputs": [],
      "stateMutability": "nonpayable",
      "type": "function"
    },
    {
      "inputs": [
        {
          "internalType": "address",
          "name": "owner",
          "type": "address"
        },
        {
          "internalType": "address",
          "name": "spender",
          "type": "address"
        }
      ],
      "name": "allowance",
      "outputs": [
        {
          "internalType": "uint256",
          "name": "",
          "type": "uint256"
        }
      ],
      "stateMutability": "view",
      "type": "function"
    },
    {
      "inputs": [
        {
          "internalType": "address",
          "name": "spender",
          "type": "address"
        },
        {
          "internalType": "uint256",
          "name": "value",
          "type": "uint256"
        }
      ],
      "name": "approve",
      "outputs": [
        {
          "internalType": "bool",
          "name": "",
          "type": "bool"
        }
      ],
      "stateMutability": "nonpayable",
      "type": "function"
    },
    {
      "inputs": [
        {
          "internalType": "address",
          "name": "",
          "type": "address"
        }
      ],
      "name": "authorizedMinters",
      "outputs": [
        {
          "internalType": "bool",
          "name": "",
          "type": "bool"
        }
      ],
      "stateMutability": "view",
      "type": "function"
    },
    {
      "inputs": [
        {
          "internalType": "address",
          "name": "account",
          "type": "address"
        }
      ],
      "name": "balanceOf",
      "outputs": [
        {
          "internalType": "uint256",
          "name": "",
          "type": "uint256"
        }
      ],
      "stateMutability": "view",
      "type": "function"
    },
    {
      "inputs": [],
      "name": "decimals",
      "outputs": [
        {
          "internalType": "uint8",
          "name": "",
          "type": "uint8"
        }
      ],
      "stateMutability": "view",
      "type": "function"
    },
    {
      "inputs": [
        {
          "internalType": "address",
          "name": "to",
          "type": "address"
        },
        {
          "internalType": "uint256",
          "name": "amount",
          "type": "uint256"
        }
      ],
      "name": "issueUPT",
      "outputs": [],
      "stateMutability": "nonpayable",
      "type": "function"
    },
    {
      "inputs": [
        {
          "internalType": "address",
          "name": "to",
          "type": "address"
        },
        {
          "internalType": "uint256",
          "name": "amount",
          "type": "uint256"
        }
      ],
      "name": "mintByAuthorizedMinter",
      "outputs": [],
      "stateMutability": "nonpayable",
      "type": "function"
    },
    {
      "inputs": [],
      "name": "name",
      "outputs": [
        {
          "internalType": "string",
          "name": "",
          "type": "string"
        }
      ],
      "stateMutability": "view",
      "type": "function"
    },
    {
      "inputs": [],
      "name": "owner",
      "outputs": [
        {
          "internalType": "address",
          "name": "",
          "type": "address"
        }
      ],
      "stateMutability": "view",
      "type": "function"
    },
    {
      "inputs": [
        {
          "internalType": "address",
          "name": "minter",
          "type": "address"
        }
      ],
      "name": "removeMinter",
      "outputs": [],
      "stateMutability": "nonpayable",
      "type": "function"
    },
    {
      "inputs": [],
      "name": "renounceOwnership",
      "outputs": [],
      "stateMutability": "nonpayable",
      "type": "function"
    },
    {
      "inputs": [],
      "name": "symbol",
      "outputs": [
        {
          "internalType": "string",
          "name": "",
          "type": "string"
        }
      ],
      "stateMutability": "view",
      "type": "function"
    },
    {
      "inputs": [],
      "name": "totalSupply",
      "outputs": [
        {
          "internalType": "uint256",
          "name": "",
          "type": "uint256"
        }
      ],
      "stateMutability": "view",
      "type": "function"
    },
    {
      "inputs": [
        {
          "internalType": "address",
          "name": "to",
          "type": "address"
        },
        {
          "internalType": "uint256",
          "name": "value",
          "type": "uint256"
        }
      ],
      "name": "transfer",
      "outputs": [
        {
          "internalType": "bool",
          "name": "",
          "type": "bool"
        }
      ],
      "stateMutability": "nonpayable",
      "type": "function"
    },
    {
      "inputs": [
        {
          "internalType": "address",
          "name": "from",
          "type": "address"
        },
        {
          "internalType": "address",
          "name": "to",
          "type": "address"
        },
        {
          "internalType": "uint256",
          "name": "value",
          "type": "uint256"
        }
      ],
      "name": "transferFrom",
      "outputs": [
        {
          "internalType": "bool",
          "name": "",
          "type": "bool"
        }
      ],
      "stateMutability": "nonpayable",
      "type": "function"
    },
    {
      "inputs": [
        {
          "internalType": "address",
          "name": "newOwner",
          "type": "address"
        }
      ],
      "name": "transferOwnership",
      "outputs": [],
      "stateMutability": "nonpayable",
      "type": "function"
    }
  ],
  "bytecode": "0x608060405234801561001057600080fd5b50604051611fb1380380611fb183398181016040528101906100329190610537565b336040518060400160405280600f81526020017f556e6976657273616c506f696e747300000000000000000000000000000000008152506040518060400160405280600481526020017f205550540000000000000000000000000000000000000000000000000000000081525081600390816100ae91906107aa565b5080600490816100be91906107aa565b505050600073ffffffffffffffffffffffffffffffffffffffff168173ffffffffffffffffffffffffffffffffffffffff16036101335760006040517f1e4fbdf700000000000000000000000000000000000000000000000000000000815260040161012a91906108bd565b60405180910390fd5b6101428161018060201b60201c565b5061017a3361015561024660201b60201c565b60ff16600a6101649190610a3a565b8361016f9190610a85565b61024f60201b60201c565b50610b5c565b6000600560009054906101000a900473ffffffffffffffffffffffffffffffffffffffff16905081600560006101000a81548173ffffffffffffffffffffffffffffffffffffffff021916908373ffffffffffffffffffffffffffffffffffffffff1602179055508173ffffffffffffffffffffffffffffffffffffffff168173ffffffffffffffffffffffffffffffffffffffff167f8be0079c531659141344cd1fd0a4f28419497f9722a3daafe3b4186f6b6457e060405160405180910390a35050565b60006012905090565b600073ffffffffffffffffffffffffffffffffffffffff168273ffffffffffffffffffffffffffffffffffffffff16036102c15760006040517fec442f050000000000000000000000000000000000000000000000000000000081526004016102b891906108bd565b60405180910390fd5b6102d3600083836102d760201b60201c565b5050565b600073ffffffffffffffffffffffffffffffffffffffff168373ffffffffffffffffffffffffffffffffffffffff160361032957806002600082825461031d9190610ac7565b925050819055506103fc565b60008060008573ffffffffffffffffffffffffffffffffffffffff1673ffffffffffffffffffffffffffffffffffffffff168152602001908152602001600020549050818110156103b5578381836040517fe450d38c0000000000000000000000000000000000000000000000000000000081526004016103ac93929190610b0a565b60405180910390fd5b8181036000808673ffffffffffffffffffffffffffffffffffffffff1673ffffffffffffffffffffffffffffffffffffffff16815260200190815260200160002081905550505b600073ffffffffffffffffffffffffffffffffffffffff168273ffffffffffffffffffffffffffffffffffffffff16036104455780600260008282540392505081905550610492565b806000808473ffffffffffffffffffffffffffffffffffffffff1673ffffffffffffffffffffffffffffffffffffffff168152602001908152602001600020600082825401925050819055505b8173ffffffffffffffffffffffffffffffffffffffff168373ffffffffffffffffffffffffffffffffffffffff167fddf252ad1be2c89b69c2b068fc378daa952ba7f163c4a11628f55a4df523b3ef836040516104ef9190610b41565b60405180910390a3505050565b600080fd5b6000819050919050565b61051481610501565b811461051f57600080fd5b50565b6000815190506105318161050b565b92915050565b60006020828403121561054d5761054c6104fc565b5b600061055b84828501610522565b91505092915050565b600081519050919050565b7f4e487b7100000000000000000000000000000000000000000000000000000000600052604160045260246000fd5b7f4e487b7100000000000000000000000000000000000000000000000000000000600052602260045260246000fd5b600060028204905060018216806105e557607f821691505b6020821081036105f8576105f761059e565b5b50919050565b60008190508160005260206000209050919050565b60006020601f8301049050919050565b600082821b905092915050565b6000600883026106607fffffffffffffffffffffffffffffffffffffffffffffffffffffffffffffffff82610623565b61066a8683610623565b95508019841693508086168417925050509392505050565b6000819050919050565b60006106a76106a261069d84610501565b610682565b610501565b9050919050565b6000819050919050565b6106c18361068c565b6106d56106cd826106ae565b848454610630565b825550505050565b600090565b6106ea6106dd565b6106f58184846106b8565b505050565b5b818110156107195761070e6000826106e2565b6001810190506106fb565b5050565b601f82111561075e5761072f816105fe565b61073884610613565b81016020851015610747578190505b61075b61075385610613565b8301826106fa565b50505b505050565b600082821c905092915050565b600061078160001984600802610763565b1980831691505092915050565b600061079a8383610770565b9150826002028217905092915050565b6107b382610564565b67ffffffffffffffff8111156107cc576107cb61056f565b5b6107d682546105cd565b6107e182828561071d565b600060209050601f8311600181146108145760008415610802578287015190505b61080c858261078e565b865550610874565b601f198416610822866105fe565b60005b8281101561084a57848901518255600182019150602085019450602081019050610825565b868310156108675784890151610863601f891682610770565b8355505b6001600288020188555050505b505050505050565b600073ffffffffffffffffffffffffffffffffffffffff82169050919050565b60006108a78261087c565b9050919050565b6108b78161089c565b82525050565b60006020820190506108d260008301846108ae565b92915050565b7f4e487b7100000000000000000000000000000000000000000000000000000000600052601160045260246000fd5b60008160011c9050919050565b6000808291508390505b600185111561095e5780860481111561093a576109396108d8565b5b60018516156109495780820291505b808102905061095785610907565b945061091e565b94509492505050565b6000826109775760019050610a33565b816109855760009050610a33565b816001811461099b57600281146109a5576109d4565b6001915050610a33565b60ff8411156109b7576109b66108d8565b5b8360020a9150848211156109ce576109cd6108d8565b5b50610a33565b5060208310610133831016604e8410600b8410161715610a095782820a905083811115610a0457610a036108d8565b5b610a33565b610a168484846001610914565b92509050818404811115610a2d57610a2c6108d8565b5b81810290505b9392505050565b6000610a4582610501565b9150610a5083610501565b9250610a7d7fffffffffffffffffffffffffffffffffffffffffffffffffffffffffffffffff8484610967565b905092915050565b6000610a9082610501565b9150610a9b83610501565b9250828202610aa981610501565b91508282048414831517610ac057610abf6108d8565b5b5092915050565b6000610ad282610501565b9150610add83610501565b9250828201905080821115610af557610af46108d8565b5b92915050565b610b0481610501565b82525050565b6000606082019050610b1f60008301866108ae565b610b2c6020830185610afb565b610b396040830184610afb565b949350505050565b6000602082019050610b566000830184610afb565b92915050565b61144680610b6b6000396000f3fe608060405234801561001057600080fd5b506004361061010b5760003560e01c8063715018a6116100a2578063a9059cbb11610071578063a9059cbb14610294578063aa2fe91b146102c4578063b404251c146102f4578063dd62ed3e14610310578063f2fde38b146103405761010b565b8063715018a6146102325780638da5cb5b1461023c57806395d89b411461025a578063983b2d56146102785761010b565b80633092afd5116100de5780633092afd5146101ac578063313ce567146101c8578063527a582a146101e657806370a08231146102025761010b565b806306fdde0314610110578063095ea7b31461012e57806318160ddd1461015e57806323b872dd1461017c575b600080fd5b61011861035c565b604051610125919061102e565b60405180910390f35b610148600480360381019061014391906110e9565b6103ee565b6040516101559190611144565b60405180910390f35b610166610411565b604051610173919061116e565b60405180910390f35b61019660048036038101906101919190611189565b61041b565b6040516101a39190611144565b60405180910390f35b6101c660048036038101906101c191906111dc565b61044a565b005b6101d06104ad565b6040516101dd9190611225565b60405180910390f35b61020060048036038101906101fb91906110e9565b6104b6565b005b61021c600480360381019061021791906111dc565b6104cc565b604051610229919061116e565b60405180910390f35b61023a610514565b005b610244610528565b604051610251919061124f565b60405180910390f35b610262610552565b60405161026f919061102e565b60405180910390f35b610292600480360381019061028d91906111dc565b6105e4565b005b6102ae60048036038101906102a991906110e9565b610647565b6040516102bb9190611144565b60405180910390f35b6102de60048036038101906102d991906111dc565b61066a565b6040516102eb9190611144565b60405180910390f35b61030e600480360381019061030991906110e9565b61068a565b005b61032a6004803603810190610325919061126a565b610724565b604051610337919061116e565b60405180910390f35b61035a600480360381019061035591906111dc565b6107ab565b005b60606003805461036b906112d9565b80601f0160208091040260200160405190810160405280929190818152602001828054610397906112d9565b80156103e45780601f106103b9576101008083540402835291602001916103e4565b820191906000526020600020905b8154815290600101906020018083116103c757829003601f168201915b5050505050905090565b6000806103f9610831565b9050610406818585610839565b600191505092915050565b6000600254905090565b600080610426610831565b905061043385828561084b565b61043e8585856108df565b60019150509392505050565b6104526109d3565b6000600660008373ffffffffffffffffffffffffffffffffffffffff1673ffffffffffffffffffffffffffffffffffffffff16815260200190815260200160002060006101000a81548160ff02191690831515021790555050565b60006012905090565b6104be6109d3565b6104c88282610a5a565b5050565b60008060008373ffffffffffffffffffffffffffffffffffffffff1673ffffffffffffffffffffffffffffffffffffffff168152602001908152602001600020549050919050565b61051c6109d3565b6105266000610adc565b565b6000600560009054906101000a900473ffffffffffffffffffffffffffffffffffffffff16905090565b606060048054610561906112d9565b80601f016020809104026020016040519081016040528092919081815260200182805461058d906112d9565b80156105da5780601f106105af576101008083540402835291602001916105da565b820191906000526020600020905b8154815290600101906020018083116105bd57829003601f168201915b5050505050905090565b6105ec6109d3565b6001600660008373ffffffffffffffffffffffffffffffffffffffff1673ffffffffffffffffffffffffffffffffffffffff16815260200190815260200160002060006101000a81548160ff02191690831515021790555050565b600080610652610831565b905061065f8185856108df565b600191505092915050565b60066020528060005260406000206000915054906101000a900460ff1681565b600660003373ffffffffffffffffffffffffffffffffffffffff1673ffffffffffffffffffffffffffffffffffffffff16815260200190815260200160002060009054906101000a900460ff16610716576040517f08c379a000000000000000000000000000000000000000000000000000000000815260040161070d90611356565b60405180910390fd5b6107208282610a5a565b5050565b6000600160008473ffffffffffffffffffffffffffffffffffffffff1673ffffffffffffffffffffffffffffffffffffffff16815260200190815260200160002060008373ffffffffffffffffffffffffffffffffffffffff1673ffffffffffffffffffffffffffffffffffffffff16815260200190815260200160002054905092915050565b6107b36109d3565b600073ffffffffffffffffffffffffffffffffffffffff168173ffffffffffffffffffffffffffffffffffffffff16036108255760006040517f1e4fbdf700000000000000000000000000000000000000000000000000000000815260040161081c919061124f565b60405180910390fd5b61082e81610adc565b50565b600033905090565b6108468383836001610ba2565b505050565b60006108578484610724565b90507fffffffffffffffffffffffffffffffffffffffffffffffffffffffffffffffff81146108d957818110156108c9578281836040517ffb8f41b20000000000000000000000000000000000000000000000000000000081526004016108c093929190611376565b60405180910390fd5b6108d884848484036000610ba2565b5b50505050565b600073ffffffffffffffffffffffffffffffffffffffff168373ffffffffffffffffffffffffffffffffffffffff16036109515760006040517f96c6fd1e000000000000000000000000000000000000000000000000000000008152600401610948919061124f565b60405180910390fd5b600073ffffffffffffffffffffffffffffffffffffffff168273ffffffffffffffffffffffffffffffffffffffff16036109c35760006040517fec442f050000000000000000000000000000000000000000000000000000000081526004016109ba919061124f565b60405180910390fd5b6109ce838383610d79565b505050565b6109db610831565b73ffffffffffffffffffffffffffffffffffffffff166109f9610528565b73ffffffffffffffffffffffffffffffffffffffff1614610a5857610a1c610831565b6040517f118cdaa7000000000000000000000000000000000000000000000000000000008152600401610a4f919061124f565b60405180910390fd5b565b600073ffffffffffffffffffffffffffffffffffffffff168273ffffffffffffffffffffffffffffffffffffffff1603610acc5760006040517fec442f05000000000000000000000000000000000000000000000000000000008152600401610ac3919061124f565b60405180910390fd5b610ad860008383610d79565b5050565b6000600560009054906101000a900473ffffffffffffffffffffffffffffffffffffffff16905081600560006101000a81548173ffffffffffffffffffffffffffffffffffffffff021916908373ffffffffffffffffffffffffffffffffffffffff1602179055508173ffffffffffffffffffffffffffffffffffffffff168173ffffffffffffffffffffffffffffffffffffffff167f8be0079c531659141344cd1fd0a4f28419497f9722a3daafe3b4186f6b6457e060405160405180910390a35050565b600073ffffffffffffffffffffffffffffffffffffffff168473ffffffffffffffffffffffffffffffffffffffff1603610c145760006040517fe602df05000000000000000000000000000000000000000000000000000000008152600401610c0b919061124f565b60405180910390fd5b600073ffffffffffffffffffffffffffffffffffffffff168373ffffffffffffffffffffffffffffffffffffffff1603610c865760006040517f94280d62000000000000000000000000000000000000000000000000000000008152600401610c7d919061124f565b60405180910390fd5b81600160008673ffffffffffffffffffffffffffffffffffffffff1673ffffffffffffffffffffffffffffffffffffffff16815260200190815260200160002060008573ffffffffffffffffffffffffffffffffffffffff1673ffffffffffffffffffffffffffffffffffffffff168152602001908152602001600020819055508015610d73578273ffffffffffffffffffffffffffffffffffffffff168473ffffffffffffffffffffffffffffffffffffffff167f8c5be1e5ebec7d5bd14f71427d1e84f3dd0314c0f7b2291e5b200ac8c7c3b92584604051610d6a919061116e565b60405180910390a35b50505050565b600073ffffffffffffffffffffffffffffffffffffffff168373ffffffffffffffffffffffffffffffffffffffff1603610dcb578060026000828254610dbf91906113dc565b92505081905550610e9e565b60008060008573ffffffffffffffffffffffffffffffffffffffff1673ffffffffffffffffffffffffffffffffffffffff16815260200190815260200160002054905081811015610e57578381836040517fe450d38c000000000000000000000000000000000000000000000000000000008152600401610e4e93929190611376565b60405180910390fd5b8181036000808673ffffffffffffffffffffffffffffffffffffffff1673ffffffffffffffffffffffffffffffffffffffff16815260200190815260200160002081905550505b600073ffffffffffffffffffffffffffffffffffffffff168273ffffffffffffffffffffffffffffffffffffffff1603610ee75780600260008282540392505081905550610f34565b806000808473ffffffffffffffffffffffffffffffffffffffff1673ffffffffffffffffffffffffffffffffffffffff168152602001908152602001600020600082825401925050819055505b8173ffffffffffffffffffffffffffffffffffffffff168373ffffffffffffffffffffffffffffffffffffffff167fddf252ad1be2c89b69c2b068fc378daa952ba7f163c4a11628f55a4df523b3ef83604051610f91919061116e565b60405180910390a3505050565b600081519050919050565b600082825260208201905092915050565b60005b83811015610fd8578082015181840152602081019050610fbd565b60008484015250505050565b6000601f19601f8301169050919050565b600061100082610f9e565b61100a8185610fa9565b935061101a818560208601610fba565b61102381610fe4565b840191505092915050565b600060208201905081810360008301526110488184610ff5565b905092915050565b600080fd5b600073ffffffffffffffffffffffffffffffffffffffff82169050919050565b600061108082611055565b9050919050565b61109081611075565b811461109b57600080fd5b50565b6000813590506110ad81611087565b92915050565b6000819050919050565b6110c6816110b3565b81146110d157600080fd5b50565b6000813590506110e3816110bd565b92915050565b60008060408385031215611100576110ff611050565b5b600061110e8582860161109e565b925050602061111f858286016110d4565b9150509250929050565b60008115159050919050565b61113e81611129565b82525050565b60006020820190506111596000830184611135565b92915050565b611168816110b3565b82525050565b6000602082019050611183600083018461115f565b92915050565b6000806000606084860312156111a2576111a1611050565b5b60006111b08682870161109e565b93505060206111c18682870161109e565b92505060406111d2868287016110d4565b9150509250925092565b6000602082840312156111f2576111f1611050565b5b60006112008482850161109e565b91505092915050565b600060ff82169050919050565b61121f81611209565b82525050565b600060208201905061123a6000830184611216565b92915050565b61124981611075565b82525050565b60006020820190506112646000830184611240565b92915050565b6000806040838503121561128157611280611050565b5b600061128f8582860161109e565b92505060206112a08582860161109e565b9150509250929050565b7f4e487b7100000000000000000000000000000000000000000000000000000000600052602260045260246000fd5b600060028204905060018216806112f157607f821691505b602082108103611304576113036112aa565b5b50919050565b7f4e6f7420617574686f72697a656420746f206d696e7400000000000000000000600082015250565b6000611340601683610fa9565b915061134b8261130a565b602082019050919050565b6000602082019050818103600083015261136f81611333565b9050919050565b600060608201905061138b6000830186611240565b611398602083018561115f565b6113a5604083018461115f565b949350505050565b7f4e487b7100000000000000000000000000000000000000000000000000000000600052601160045260246000fd5b60006113e7826110b3565b91506113f2836110b3565b925082820190508082111561140a576114096113ad565b5b9291505056fea26469706673582212203de6098600062bfdcfcda43242524f2b7ae0f17051d104f443ec63555c7ee40a64736f6c634300081a0033",
  "linkReferences": {},
  "deployedLinkReferences": {}
}