{
  "_format": "hh-sol-artifact-1",
  "contractName": "PointsExchange",
  "sourceName": "contracts/PointsExchange.sol",
  "abi": [
    {
      "inputs": [
        {
          "internalType": "address",
          "name": "_universalPoints",
          "type": "address"
        }
      ],
      "stateMutability": "nonpayable",
      "type": "constructor"
    },
    {
      "inputs": [
        {
          "internalType": "address",
          "name": "regularPointsAddress",
          "type": "address"
        },
        {
          "internalType": "uint256",
          "name": "amount",
          "type": "uint256"
        }
      ],
      "name": "exchangeRPTToUPT",
      "outputs": [],
      "stateMutability": "nonpayable",
      "type": "function"
    },
    {
      "inputs": [
        {
          "internalType": "address",
          "name": "",
          "type": "address"
        }
      ],
      "name": "exchangeRates",
      "outputs": [
        {
          "internalType": "uint256",
          "name": "",
          "type": "uint256"
        }
      ],
      "stateMutability": "view",
      "type": "function"
    },
    {
      "inputs": [
        {
          "internalType": "address",
          "name": "regularPointsAddress",
          "type": "address"
        }
      ],
      "name": "getRegularPointsBalance",
      "outputs": [
        {
          "internalType": "uint256",
          "name": "",
          "type": "uint256"
        }
      ],
      "stateMutability": "view",
      "type": "function"
    },
    {
      "inputs": [
        {
          "internalType": "address",
          "name": "regularPointsAddress",
          "type": "address"
        },
        {
          "internalType": "uint256",
          "name": "newRate",
          "type": "uint256"
        }
      ],
      "name": "setExchangeRate",
      "outputs": [],
      "stateMutability": "nonpayable",
      "type": "function"
    },
    {
      "inputs": [],
      "name": "universalPoints",
      "outputs": [
        {
          "internalType": "contract UniversalPoints",
          "name": "",
          "type": "address"
        }
      ],
      "stateMutability": "view",
      "type": "function"
    }
  ],
  "bytecode": "0x608060405234801561001057600080fd5b50604051610b86380380610b86833981810160405281019061003291906100db565b806000806101000a81548173ffffffffffffffffffffffffffffffffffffffff021916908373ffffffffffffffffffffffffffffffffffffffff16021790555050610108565b600080fd5b600073ffffffffffffffffffffffffffffffffffffffff82169050919050565b60006100a88261007d565b9050919050565b6100b88161009d565b81146100c357600080fd5b50565b6000815190506100d5816100af565b92915050565b6000602082840312156100f1576100f0610078565b5b60006100ff848285016100c6565b91505092915050565b610a6f806101176000396000f3fe608060405234801561001057600080fd5b50600436106100575760003560e01c806378e25c0b1461005c57806385c15d9a1461008c578063b3b98f14146100bc578063bd5c5420146100d8578063fbe4e720146100f4575b600080fd5b610076600480360381019061007191906105ac565b610112565b60405161008391906105f2565b60405180910390f35b6100a660048036038101906100a191906105ac565b61019a565b6040516100b391906105f2565b60405180910390f35b6100d660048036038101906100d19190610639565b6101b2565b005b6100f260048036038101906100ed9190610639565b6104dd565b005b6100fc610525565b60405161010991906106d8565b60405180910390f35b6000808290508073ffffffffffffffffffffffffffffffffffffffff166370a08231336040518263ffffffff1660e01b81526004016101519190610702565b602060405180830381865afa15801561016e573d6000803e3d6000fd5b505050506040513d601f19601f820116820180604052508101906101929190610732565b915050919050565b60016020528060005260406000206000915090505481565b60008290506000600160008573ffffffffffffffffffffffffffffffffffffffff1673ffffffffffffffffffffffffffffffffffffffff1681526020019081526020016000205490506000811161023e576040517f08c379a0000000000000000000000000000000000000000000000000000000008152600401610235906107e2565b60405180910390fd5b6000818461024c9190610831565b9050838373ffffffffffffffffffffffffffffffffffffffff166370a08231336040518263ffffffff1660e01b81526004016102889190610702565b602060405180830381865afa1580156102a5573d6000803e3d6000fd5b505050506040513d601f19601f820116820180604052508101906102c99190610732565b101561030a576040517f08c379a0000000000000000000000000000000000000000000000000000000008152600401610301906108bf565b60405180910390fd5b838373ffffffffffffffffffffffffffffffffffffffff1663dd62ed3e33306040518363ffffffff1660e01b81526004016103469291906108df565b602060405180830381865afa158015610363573d6000803e3d6000fd5b505050506040513d601f19601f820116820180604052508101906103879190610732565b10156103c8576040517f08c379a00000000000000000000000000000000000000000000000000000000081526004016103bf90610954565b60405180910390fd5b8273ffffffffffffffffffffffffffffffffffffffff166323b872dd3330876040518463ffffffff1660e01b815260040161040593929190610974565b6020604051808303816000875af1158015610424573d6000803e3d6000fd5b505050506040513d601f19601f8201168201806040525081019061044891906109e3565b5060008054906101000a900473ffffffffffffffffffffffffffffffffffffffff1673ffffffffffffffffffffffffffffffffffffffff1663b404251c33836040518363ffffffff1660e01b81526004016104a4929190610a10565b600060405180830381600087803b1580156104be57600080fd5b505af11580156104d2573d6000803e3d6000fd5b505050505050505050565b80600160008473ffffffffffffffffffffffffffffffffffffffff1673ffffffffffffffffffffffffffffffffffffffff168152602001908152602001600020819055505050565b60008054906101000a900473ffffffffffffffffffffffffffffffffffffffff1681565b600080fd5b600073ffffffffffffffffffffffffffffffffffffffff82169050919050565b60006105798261054e565b9050919050565b6105898161056e565b811461059457600080fd5b50565b6000813590506105a681610580565b92915050565b6000602082840312156105c2576105c1610549565b5b60006105d084828501610597565b91505092915050565b6000819050919050565b6105ec816105d9565b82525050565b600060208201905061060760008301846105e3565b92915050565b610616816105d9565b811461062157600080fd5b50565b6000813590506106338161060d565b92915050565b600080604083850312156106505761064f610549565b5b600061065e85828601610597565b925050602061066f85828601610624565b9150509250929050565b6000819050919050565b600061069e6106996106948461054e565b610679565b61054e565b9050919050565b60006106b082610683565b9050919050565b60006106c2826106a5565b9050919050565b6106d2816106b7565b82525050565b60006020820190506106ed60008301846106c9565b92915050565b6106fc8161056e565b82525050565b600060208201905061071760008301846106f3565b92915050565b60008151905061072c8161060d565b92915050565b60006020828403121561074857610747610549565b5b60006107568482850161071d565b91505092915050565b600082825260208201905092915050565b7f45786368616e67652072617465206e6f742073657420666f722074686973207460008201527f6f6b656e00000000000000000000000000000000000000000000000000000000602082015250565b60006107cc60248361075f565b91506107d782610770565b604082019050919050565b600060208201905081810360008301526107fb816107bf565b9050919050565b7f4e487b7100000000000000000000000000000000000000000000000000000000600052601160045260246000fd5b600061083c826105d9565b9150610847836105d9565b9250828202610855816105d9565b9150828204841483151761086c5761086b610802565b5b5092915050565b7f496e73756666696369656e74205250542062616c616e63650000000000000000600082015250565b60006108a960188361075f565b91506108b482610873565b602082019050919050565b600060208201905081810360008301526108d88161089c565b9050919050565b60006040820190506108f460008301856106f3565b61090160208301846106f3565b9392505050565b7f496e73756666696369656e7420616c6c6f77616e636500000000000000000000600082015250565b600061093e60168361075f565b915061094982610908565b602082019050919050565b6000602082019050818103600083015261096d81610931565b9050919050565b600060608201905061098960008301866106f3565b61099660208301856106f3565b6109a360408301846105e3565b949350505050565b60008115159050919050565b6109c0816109ab565b81146109cb57600080fd5b50565b6000815190506109dd816109b7565b92915050565b6000602082840312156109f9576109f8610549565b5b6000610a07848285016109ce565b91505092915050565b6000604082019050610a2560008301856106f3565b610a3260208301846105e3565b939250505056fea2646970667358221220394b126493faccfbf215f16f0e583742f863c226dea02c545d69c5da8705bb8d64736f6c634300081a0033",
  "linkReferences": {},
  "deployedLinkReferences": {}
}